{
  "_format": "hh-sol-artifact-1",
  "contractName": "Decentratwitter",
  "sourceName": "contracts/Decentratwitter.sol",
  "abi": [
    {
      "inputs": [],
      "stateMutability": "nonpayable",
      "type": "constructor"
    },
    {
      "anonymous": false,
      "inputs": [
        {
          "indexed": true,
          "internalType": "address",
          "name": "owner",
          "type": "address"
        },
        {
          "indexed": true,
          "internalType": "address",
          "name": "approved",
          "type": "address"
        },
        {
          "indexed": true,
          "internalType": "uint256",
          "name": "tokenId",
          "type": "uint256"
        }
      ],
      "name": "Approval",
      "type": "event"
    },
    {
      "anonymous": false,
      "inputs": [
        {
          "indexed": true,
          "internalType": "address",
          "name": "owner",
          "type": "address"
        },
        {
          "indexed": true,
          "internalType": "address",
          "name": "operator",
          "type": "address"
        },
        {
          "indexed": false,
          "internalType": "bool",
          "name": "approved",
          "type": "bool"
        }
      ],
      "name": "ApprovalForAll",
      "type": "event"
    },
    {
      "anonymous": false,
      "inputs": [
        {
          "indexed": false,
          "internalType": "uint256",
          "name": "id",
          "type": "uint256"
        },
        {
          "indexed": false,
          "internalType": "string",
          "name": "hash",
          "type": "string"
        },
        {
          "indexed": false,
          "internalType": "uint256",
          "name": "tipAmount",
          "type": "uint256"
        },
        {
          "indexed": false,
          "internalType": "address payable",
          "name": "author",
          "type": "address"
        }
      ],
      "name": "PostCreated",
      "type": "event"
    },
    {
      "anonymous": false,
      "inputs": [
        {
          "indexed": false,
          "internalType": "uint256",
          "name": "id",
          "type": "uint256"
        },
        {
          "indexed": false,
          "internalType": "string",
          "name": "hash",
          "type": "string"
        },
        {
          "indexed": false,
          "internalType": "uint256",
          "name": "tipAmount",
          "type": "uint256"
        },
        {
          "indexed": false,
          "internalType": "address payable",
          "name": "author",
          "type": "address"
        }
      ],
      "name": "PostTipped",
      "type": "event"
    },
    {
      "anonymous": false,
      "inputs": [
        {
          "indexed": true,
          "internalType": "address",
          "name": "from",
          "type": "address"
        },
        {
          "indexed": true,
          "internalType": "address",
          "name": "to",
          "type": "address"
        },
        {
          "indexed": true,
          "internalType": "uint256",
          "name": "tokenId",
          "type": "uint256"
        }
      ],
      "name": "Transfer",
      "type": "event"
    },
    {
      "inputs": [
        {
          "internalType": "address",
          "name": "to",
          "type": "address"
        },
        {
          "internalType": "uint256",
          "name": "tokenId",
          "type": "uint256"
        }
      ],
      "name": "approve",
      "outputs": [],
      "stateMutability": "nonpayable",
      "type": "function"
    },
    {
      "inputs": [
        {
          "internalType": "address",
          "name": "owner",
          "type": "address"
        }
      ],
      "name": "balanceOf",
      "outputs": [
        {
          "internalType": "uint256",
          "name": "",
          "type": "uint256"
        }
      ],
      "stateMutability": "view",
      "type": "function"
    },
    {
      "inputs": [],
      "name": "getAllPosts",
      "outputs": [
        {
          "components": [
            {
              "internalType": "uint256",
              "name": "id",
              "type": "uint256"
            },
            {
              "internalType": "string",
              "name": "hash",
              "type": "string"
            },
            {
              "internalType": "uint256",
              "name": "tipAmount",
              "type": "uint256"
            },
            {
              "internalType": "address payable",
              "name": "author",
              "type": "address"
            }
          ],
          "internalType": "struct Decentratwitter.Post[]",
          "name": "_posts",
          "type": "tuple[]"
        }
      ],
      "stateMutability": "view",
      "type": "function"
    },
    {
      "inputs": [
        {
          "internalType": "uint256",
          "name": "tokenId",
          "type": "uint256"
        }
      ],
      "name": "getApproved",
      "outputs": [
        {
          "internalType": "address",
          "name": "",
          "type": "address"
        }
      ],
      "stateMutability": "view",
      "type": "function"
    },
    {
      "inputs": [],
      "name": "getMyNfts",
      "outputs": [
        {
          "internalType": "uint256[]",
          "name": "_ids",
          "type": "uint256[]"
        }
      ],
      "stateMutability": "view",
      "type": "function"
    },
    {
      "inputs": [
        {
          "internalType": "address",
          "name": "owner",
          "type": "address"
        },
        {
          "internalType": "address",
          "name": "operator",
          "type": "address"
        }
      ],
      "name": "isApprovedForAll",
      "outputs": [
        {
          "internalType": "bool",
          "name": "",
          "type": "bool"
        }
      ],
      "stateMutability": "view",
      "type": "function"
    },
    {
      "inputs": [
        {
          "internalType": "string",
          "name": "_tokenURI",
          "type": "string"
        }
      ],
      "name": "mint",
      "outputs": [
        {
          "internalType": "uint256",
          "name": "",
          "type": "uint256"
        }
      ],
      "stateMutability": "nonpayable",
      "type": "function"
    },
    {
      "inputs": [],
      "name": "name",
      "outputs": [
        {
          "internalType": "string",
          "name": "",
          "type": "string"
        }
      ],
      "stateMutability": "view",
      "type": "function"
    },
    {
      "inputs": [
        {
          "internalType": "uint256",
          "name": "tokenId",
          "type": "uint256"
        }
      ],
      "name": "ownerOf",
      "outputs": [
        {
          "internalType": "address",
          "name": "",
          "type": "address"
        }
      ],
      "stateMutability": "view",
      "type": "function"
    },
    {
      "inputs": [],
      "name": "postCount",
      "outputs": [
        {
          "internalType": "uint256",
          "name": "",
          "type": "uint256"
        }
      ],
      "stateMutability": "view",
      "type": "function"
    },
    {
      "inputs": [
        {
          "internalType": "uint256",
          "name": "",
          "type": "uint256"
        }
      ],
      "name": "posts",
      "outputs": [
        {
          "internalType": "uint256",
          "name": "id",
          "type": "uint256"
        },
        {
          "internalType": "string",
          "name": "hash",
          "type": "string"
        },
        {
          "internalType": "uint256",
          "name": "tipAmount",
          "type": "uint256"
        },
        {
          "internalType": "address payable",
          "name": "author",
          "type": "address"
        }
      ],
      "stateMutability": "view",
      "type": "function"
    },
    {
      "inputs": [
        {
          "internalType": "address",
          "name": "",
          "type": "address"
        }
      ],
      "name": "profiles",
      "outputs": [
        {
          "internalType": "uint256",
          "name": "",
          "type": "uint256"
        }
      ],
      "stateMutability": "view",
      "type": "function"
    },
    {
      "inputs": [
        {
          "internalType": "address",
          "name": "from",
          "type": "address"
        },
        {
          "internalType": "address",
          "name": "to",
          "type": "address"
        },
        {
          "internalType": "uint256",
          "name": "tokenId",
          "type": "uint256"
        }
      ],
      "name": "safeTransferFrom",
      "outputs": [],
      "stateMutability": "nonpayable",
      "type": "function"
    },
    {
      "inputs": [
        {
          "internalType": "address",
          "name": "from",
          "type": "address"
        },
        {
          "internalType": "address",
          "name": "to",
          "type": "address"
        },
        {
          "internalType": "uint256",
          "name": "tokenId",
          "type": "uint256"
        },
        {
          "internalType": "bytes",
          "name": "_data",
          "type": "bytes"
        }
      ],
      "name": "safeTransferFrom",
      "outputs": [],
      "stateMutability": "nonpayable",
      "type": "function"
    },
    {
      "inputs": [
        {
          "internalType": "address",
          "name": "operator",
          "type": "address"
        },
        {
          "internalType": "bool",
          "name": "approved",
          "type": "bool"
        }
      ],
      "name": "setApprovalForAll",
      "outputs": [],
      "stateMutability": "nonpayable",
      "type": "function"
    },
    {
      "inputs": [
        {
          "internalType": "uint256",
          "name": "_id",
          "type": "uint256"
        }
      ],
      "name": "setProfile",
      "outputs": [],
      "stateMutability": "nonpayable",
      "type": "function"
    },
    {
      "inputs": [
        {
          "internalType": "bytes4",
          "name": "interfaceId",
          "type": "bytes4"
        }
      ],
      "name": "supportsInterface",
      "outputs": [
        {
          "internalType": "bool",
          "name": "",
          "type": "bool"
        }
      ],
      "stateMutability": "view",
      "type": "function"
    },
    {
      "inputs": [],
      "name": "symbol",
      "outputs": [
        {
          "internalType": "string",
          "name": "",
          "type": "string"
        }
      ],
      "stateMutability": "view",
      "type": "function"
    },
    {
      "inputs": [
        {
          "internalType": "uint256",
          "name": "_id",
          "type": "uint256"
        }
      ],
      "name": "tipPostOwner",
      "outputs": [],
      "stateMutability": "payable",
      "type": "function"
    },
    {
      "inputs": [],
      "name": "tokenCount",
      "outputs": [
        {
          "internalType": "uint256",
          "name": "",
          "type": "uint256"
        }
      ],
      "stateMutability": "view",
      "type": "function"
    },
    {
      "inputs": [
        {
          "internalType": "uint256",
          "name": "tokenId",
          "type": "uint256"
        }
      ],
      "name": "tokenURI",
      "outputs": [
        {
          "internalType": "string",
          "name": "",
          "type": "string"
        }
      ],
      "stateMutability": "view",
      "type": "function"
    },
    {
      "inputs": [
        {
          "internalType": "address",
          "name": "from",
          "type": "address"
        },
        {
          "internalType": "address",
          "name": "to",
          "type": "address"
        },
        {
          "internalType": "uint256",
          "name": "tokenId",
          "type": "uint256"
        }
      ],
      "name": "transferFrom",
      "outputs": [],
      "stateMutability": "nonpayable",
      "type": "function"
    },
    {
      "inputs": [
        {
          "internalType": "string",
          "name": "_postHash",
          "type": "string"
        }
      ],
      "name": "uploadPost",
      "outputs": [],
      "stateMutability": "nonpayable",
      "type": "function"
    }
  ],
  "bytecode": "0x60806040523480156200001157600080fd5b506040518060400160405280600f81526020017f446563656e7472617477697474657200000000000000000000000000000000008152506040518060400160405280600481526020017f4441505000000000000000000000000000000000000000000000000000000000815250816000908051906020019062000096929190620000b8565b508060019080519060200190620000af929190620000b8565b505050620001cd565b828054620000c69062000168565b90600052602060002090601f016020900481019282620000ea576000855562000136565b82601f106200010557805160ff191683800117855562000136565b8280016001018555821562000136579182015b828111156200013557825182559160200191906001019062000118565b5b50905062000145919062000149565b5090565b5b80821115620001645760008160009055506001016200014a565b5090565b600060028204905060018216806200018157607f821691505b602082108114156200019857620001976200019e565b5b50919050565b7f4e487b7100000000000000000000000000000000000000000000000000000000600052602260045260246000fd5b613ae980620001dd6000396000f3fe6080604052600436106101405760003560e01c806370a08231116100b6578063bbe156271161006f578063bbe1562714610471578063bdd05adb146104ae578063c87b56dd146104d7578063d6313c0614610514578063d85d3d2714610530578063e985e9c51461056d57610140565b806370a082311461036357806385d3cb37146103a057806395d89b41146103c95780639f181b5e146103f4578063a22cb4651461041f578063b88d4fde1461044857610140565b80630b1e7f83116101085780630b1e7f831461023e57806317906c2e1461027e57806323b872dd146102a957806330561100146102d257806342842e0e146102fd5780636352211e1461032657610140565b806301ffc9a714610145578063047b07bf1461018257806306fdde03146101ad578063081812fc146101d8578063095ea7b314610215575b600080fd5b34801561015157600080fd5b5061016c60048036038101906101679190612593565b6105aa565b6040516101799190612ca4565b60405180910390f35b34801561018e57600080fd5b5061019761068c565b6040516101a49190612c82565b60405180910390f35b3480156101b957600080fd5b506101c2610691565b6040516101cf9190612cbf565b60405180910390f35b3480156101e457600080fd5b506101ff60048036038101906101fa9190612626565b610723565b60405161020c9190612bf9565b60405180910390f35b34801561022157600080fd5b5061023c60048036038101906102379190612557565b6107a8565b005b34801561024a57600080fd5b5061026560048036038101906102609190612626565b6108c0565b6040516102759493929190612fe8565b60405180910390f35b34801561028a57600080fd5b50610293610998565b6040516102a09190612f81565b60405180910390f35b3480156102b557600080fd5b506102d060048036038101906102cb9190612451565b61099e565b005b3480156102de57600080fd5b506102e76109fe565b6040516102f49190612c60565b60405180910390f35b34801561030957600080fd5b50610324600480360381019061031f9190612451565b610a03565b005b34801561033257600080fd5b5061034d60048036038101906103489190612626565b610a23565b60405161035a9190612bf9565b60405180910390f35b34801561036f57600080fd5b5061038a600480360381019061038591906123ec565b610ad5565b6040516103979190612f81565b60405180910390f35b3480156103ac57600080fd5b506103c760048036038101906103c29190612626565b610b8d565b005b3480156103d557600080fd5b506103de610c4a565b6040516103eb9190612cbf565b60405180910390f35b34801561040057600080fd5b50610409610cdc565b6040516104169190612f81565b60405180910390f35b34801561042b57600080fd5b506104466004803603810190610441919061251b565b610ce2565b005b34801561045457600080fd5b5061046f600480360381019061046a91906124a0565b610cf8565b005b34801561047d57600080fd5b50610498600480360381019061049391906123ec565b610d5a565b6040516104a59190612f81565b60405180910390f35b3480156104ba57600080fd5b506104d560048036038101906104d091906125e5565b610d72565b005b3480156104e357600080fd5b506104fe60048036038101906104f99190612626565b610f26565b60405161050b9190612cbf565b60405180910390f35b61052e60048036038101906105299190612626565b611078565b005b34801561053c57600080fd5b50610557600480360381019061055291906125e5565b61139a565b6040516105649190612f81565b60405180910390f35b34801561057957600080fd5b50610594600480360381019061058f9190612415565b6113e1565b6040516105a19190612ca4565b60405180910390f35b60007f80ac58cd000000000000000000000000000000000000000000000000000000007bffffffffffffffffffffffffffffffffffffffffffffffffffffffff1916827bffffffffffffffffffffffffffffffffffffffffffffffffffffffff1916148061067557507f5b5e139f000000000000000000000000000000000000000000000000000000007bffffffffffffffffffffffffffffffffffffffffffffffffffffffff1916827bffffffffffffffffffffffffffffffffffffffffffffffffffffffff1916145b80610685575061068482611475565b5b9050919050565b606090565b6060600080546106a090613316565b80601f01602080910402602001604051908101604052809291908181526020018280546106cc90613316565b80156107195780601f106106ee57610100808354040283529160200191610719565b820191906000526020600020905b8154815290600101906020018083116106fc57829003601f168201915b5050505050905090565b600061072e826114df565b61076d576040517f08c379a000000000000000000000000000000000000000000000000000000000815260040161076490612e81565b60405180910390fd5b6004600083815260200190815260200160002060009054906101000a900473ffffffffffffffffffffffffffffffffffffffff169050919050565b60006107b382610a23565b90508073ffffffffffffffffffffffffffffffffffffffff168373ffffffffffffffffffffffffffffffffffffffff161415610824576040517f08c379a000000000000000000000000000000000000000000000000000000000815260040161081b90612ee1565b60405180910390fd5b8073ffffffffffffffffffffffffffffffffffffffff1661084361154b565b73ffffffffffffffffffffffffffffffffffffffff16148061087257506108718161086c61154b565b6113e1565b5b6108b1576040517f08c379a00000000000000000000000000000000000000000000000000000000081526004016108a890612da1565b60405180910390fd5b6108bb8383611553565b505050565b60096020528060005260406000206000915090508060000154908060010180546108e990613316565b80601f016020809104026020016040519081016040528092919081815260200182805461091590613316565b80156109625780601f1061093757610100808354040283529160200191610962565b820191906000526020600020905b81548152906001019060200180831161094557829003601f168201915b5050505050908060020154908060030160009054906101000a900473ffffffffffffffffffffffffffffffffffffffff16905084565b60085481565b6109af6109a961154b565b8261160c565b6109ee576040517f08c379a00000000000000000000000000000000000000000000000000000000081526004016109e590612f61565b60405180910390fd5b6109f98383836116ea565b505050565b606090565b610a1e83838360405180602001604052806000815250610cf8565b505050565b6000806002600084815260200190815260200160002060009054906101000a900473ffffffffffffffffffffffffffffffffffffffff169050600073ffffffffffffffffffffffffffffffffffffffff168173ffffffffffffffffffffffffffffffffffffffff161415610acc576040517f08c379a0000000000000000000000000000000000000000000000000000000008152600401610ac390612de1565b60405180910390fd5b80915050919050565b60008073ffffffffffffffffffffffffffffffffffffffff168273ffffffffffffffffffffffffffffffffffffffff161415610b46576040517f08c379a0000000000000000000000000000000000000000000000000000000008152600401610b3d90612dc1565b60405180910390fd5b600360008373ffffffffffffffffffffffffffffffffffffffff1673ffffffffffffffffffffffffffffffffffffffff168152602001908152602001600020549050919050565b3373ffffffffffffffffffffffffffffffffffffffff16610bad82610a23565b73ffffffffffffffffffffffffffffffffffffffff1614610c03576040517f08c379a0000000000000000000000000000000000000000000000000000000008152600401610bfa90612f01565b60405180910390fd5b80600a60003373ffffffffffffffffffffffffffffffffffffffff1673ffffffffffffffffffffffffffffffffffffffff1681526020019081526020016000208190555050565b606060018054610c5990613316565b80601f0160208091040260200160405190810160405280929190818152602001828054610c8590613316565b8015610cd25780601f10610ca757610100808354040283529160200191610cd2565b820191906000526020600020905b815481529060010190602001808311610cb557829003601f168201915b5050505050905090565b60075481565b610cf4610ced61154b565b8383611951565b5050565b610d09610d0361154b565b8361160c565b610d48576040517f08c379a0000000000000000000000000000000000000000000000000000000008152600401610d3f90612f61565b60405180910390fd5b610d5484848484611abe565b50505050565b600a6020528060005260406000206000915090505481565b6000610d7d33610ad5565b11610dbd576040517f08c379a0000000000000000000000000000000000000000000000000000000008152600401610db490612f41565b60405180910390fd5b6000815111610e01576040517f08c379a0000000000000000000000000000000000000000000000000000000008152600401610df890612ea1565b60405180910390fd5b60086000815480929190610e1490613379565b919050555060405180608001604052806008548152602001828152602001600081526020013373ffffffffffffffffffffffffffffffffffffffff16815250600960006008548152602001908152602001600020600082015181600001556020820151816001019080519060200190610e8e929190612210565b506040820151816002015560608201518160030160006101000a81548173ffffffffffffffffffffffffffffffffffffffff021916908373ffffffffffffffffffffffffffffffffffffffff1602179055509050507fc66336337a24e513f909b3b25119854dba8385d51307dbc7d31d1b2805e19c7e60085482600033604051610f1b9493929190612f9c565b60405180910390a150565b6060610f31826114df565b610f70576040517f08c379a0000000000000000000000000000000000000000000000000000000008152600401610f6790612e61565b60405180910390fd5b6000600660008481526020019081526020016000208054610f9090613316565b80601f0160208091040260200160405190810160405280929190818152602001828054610fbc90613316565b80156110095780601f10610fde57610100808354040283529160200191611009565b820191906000526020600020905b815481529060010190602001808311610fec57829003601f168201915b50505050509050600061101a611b1a565b9050600081511415611030578192505050611073565b60008251111561106557808260405160200161104d929190612bd5565b60405160208183030381529060405292505050611073565b61106e84611b31565b925050505b919050565b60008111801561108a57506008548111155b6110c9576040517f08c379a00000000000000000000000000000000000000000000000000000000081526004016110c090612e21565b60405180910390fd5b6000600960008381526020019081526020016000206040518060800160405290816000820154815260200160018201805461110390613316565b80601f016020809104026020016040519081016040528092919081815260200182805461112f90613316565b801561117c5780601f106111515761010080835404028352916020019161117c565b820191906000526020600020905b81548152906001019060200180831161115f57829003601f168201915b50505050508152602001600282015481526020016003820160009054906101000a900473ffffffffffffffffffffffffffffffffffffffff1673ffffffffffffffffffffffffffffffffffffffff1673ffffffffffffffffffffffffffffffffffffffff168152505090503373ffffffffffffffffffffffffffffffffffffffff16816060015173ffffffffffffffffffffffffffffffffffffffff16141561125a576040517f08c379a000000000000000000000000000000000000000000000000000000000815260040161125190612f21565b60405180910390fd5b806060015173ffffffffffffffffffffffffffffffffffffffff166108fc349081150290604051600060405180830381858888f193505050501580156112a4573d6000803e3d6000fd5b5034816040018181516112b79190613181565b9150818152505080600960008481526020019081526020016000206000820151816000015560208201518160010190805190602001906112f8929190612210565b506040820151816002015560608201518160030160006101000a81548173ffffffffffffffffffffffffffffffffffffffff021916908373ffffffffffffffffffffffffffffffffffffffff1602179055509050507f20988fe475351e75813672abada1dddb7ac67cbbeb81e61e1160b8329d8cdf1c8282602001518360400151846060015160405161138e9493929190612fe8565b60405180910390a15050565b6000600760008154809291906113af90613379565b91905055506113c033600754611bd8565b6113cc60075483611bf6565b6113d7600754610b8d565b6007549050919050565b6000600560008473ffffffffffffffffffffffffffffffffffffffff1673ffffffffffffffffffffffffffffffffffffffff16815260200190815260200160002060008373ffffffffffffffffffffffffffffffffffffffff1673ffffffffffffffffffffffffffffffffffffffff16815260200190815260200160002060009054906101000a900460ff16905092915050565b60007f01ffc9a7000000000000000000000000000000000000000000000000000000007bffffffffffffffffffffffffffffffffffffffffffffffffffffffff1916827bffffffffffffffffffffffffffffffffffffffffffffffffffffffff1916149050919050565b60008073ffffffffffffffffffffffffffffffffffffffff166002600084815260200190815260200160002060009054906101000a900473ffffffffffffffffffffffffffffffffffffffff1673ffffffffffffffffffffffffffffffffffffffff1614159050919050565b600033905090565b816004600083815260200190815260200160002060006101000a81548173ffffffffffffffffffffffffffffffffffffffff021916908373ffffffffffffffffffffffffffffffffffffffff160217905550808273ffffffffffffffffffffffffffffffffffffffff166115c683610a23565b73ffffffffffffffffffffffffffffffffffffffff167f8c5be1e5ebec7d5bd14f71427d1e84f3dd0314c0f7b2291e5b200ac8c7c3b92560405160405180910390a45050565b6000611617826114df565b611656576040517f08c379a000000000000000000000000000000000000000000000000000000000815260040161164d90612d81565b60405180910390fd5b600061166183610a23565b90508073ffffffffffffffffffffffffffffffffffffffff168473ffffffffffffffffffffffffffffffffffffffff1614806116d057508373ffffffffffffffffffffffffffffffffffffffff166116b884610723565b73ffffffffffffffffffffffffffffffffffffffff16145b806116e157506116e081856113e1565b5b91505092915050565b8273ffffffffffffffffffffffffffffffffffffffff1661170a82610a23565b73ffffffffffffffffffffffffffffffffffffffff1614611760576040517f08c379a000000000000000000000000000000000000000000000000000000000815260040161175790612d01565b60405180910390fd5b600073ffffffffffffffffffffffffffffffffffffffff168273ffffffffffffffffffffffffffffffffffffffff1614156117d0576040517f08c379a00000000000000000000000000000000000000000000000000000000081526004016117c790612d41565b60405180910390fd5b6117db838383611c6a565b6117e6600082611553565b6001600360008573ffffffffffffffffffffffffffffffffffffffff1673ffffffffffffffffffffffffffffffffffffffff16815260200190815260200160002060008282546118369190613208565b925050819055506001600360008473ffffffffffffffffffffffffffffffffffffffff1673ffffffffffffffffffffffffffffffffffffffff168152602001908152602001600020600082825461188d9190613181565b92505081905550816002600083815260200190815260200160002060006101000a81548173ffffffffffffffffffffffffffffffffffffffff021916908373ffffffffffffffffffffffffffffffffffffffff160217905550808273ffffffffffffffffffffffffffffffffffffffff168473ffffffffffffffffffffffffffffffffffffffff167fddf252ad1be2c89b69c2b068fc378daa952ba7f163c4a11628f55a4df523b3ef60405160405180910390a461194c838383611c6f565b505050565b8173ffffffffffffffffffffffffffffffffffffffff168373ffffffffffffffffffffffffffffffffffffffff1614156119c0576040517f08c379a00000000000000000000000000000000000000000000000000000000081526004016119b790612d61565b60405180910390fd5b80600560008573ffffffffffffffffffffffffffffffffffffffff1673ffffffffffffffffffffffffffffffffffffffff16815260200190815260200160002060008473ffffffffffffffffffffffffffffffffffffffff1673ffffffffffffffffffffffffffffffffffffffff16815260200190815260200160002060006101000a81548160ff0219169083151502179055508173ffffffffffffffffffffffffffffffffffffffff168373ffffffffffffffffffffffffffffffffffffffff167f17307eab39ab6107e8899845ad3d59bd9653f200f220920489ca2b5937696c3183604051611ab19190612ca4565b60405180910390a3505050565b611ac98484846116ea565b611ad584848484611c74565b611b14576040517f08c379a0000000000000000000000000000000000000000000000000000000008152600401611b0b90612ce1565b60405180910390fd5b50505050565b606060405180602001604052806000815250905090565b6060611b3c826114df565b611b7b576040517f08c379a0000000000000000000000000000000000000000000000000000000008152600401611b7290612ec1565b60405180910390fd5b6000611b85611b1a565b90506000815111611ba55760405180602001604052806000815250611bd0565b80611baf84611e0b565b604051602001611bc0929190612bd5565b6040516020818303038152906040525b915050919050565b611bf2828260405180602001604052806000815250611fb8565b5050565b611bff826114df565b611c3e576040517f08c379a0000000000000000000000000000000000000000000000000000000008152600401611c3590612e01565b60405180910390fd5b80600660008481526020019081526020016000209080519060200190611c65929190612210565b505050565b505050565b505050565b6000611c958473ffffffffffffffffffffffffffffffffffffffff16612013565b15611dfe578373ffffffffffffffffffffffffffffffffffffffff1663150b7a02611cbe61154b565b8786866040518563ffffffff1660e01b8152600401611ce09493929190612c14565b602060405180830381600087803b158015611cfa57600080fd5b505af1925050508015611d2b57506040513d601f19601f82011682018060405250810190611d2891906125bc565b60015b611dae573d8060008114611d5b576040519150601f19603f3d011682016040523d82523d6000602084013e611d60565b606091505b50600081511415611da6576040517f08c379a0000000000000000000000000000000000000000000000000000000008152600401611d9d90612ce1565b60405180910390fd5b805181602001fd5b63150b7a0260e01b7bffffffffffffffffffffffffffffffffffffffffffffffffffffffff1916817bffffffffffffffffffffffffffffffffffffffffffffffffffffffff191614915050611e03565b600190505b949350505050565b60606000821415611e53576040518060400160405280600181526020017f30000000000000000000000000000000000000000000000000000000000000008152509050611fb3565b600082905060005b60008214611e85578080611e6e90613379565b915050600a82611e7e91906131d7565b9150611e5b565b60008167ffffffffffffffff811115611ec7577f4e487b7100000000000000000000000000000000000000000000000000000000600052604160045260246000fd5b6040519080825280601f01601f191660200182016040528015611ef95781602001600182028036833780820191505090505b5090505b60008514611fac57600182611f129190613208565b9150600a85611f2191906133c2565b6030611f2d9190613181565b60f81b818381518110611f69577f4e487b7100000000000000000000000000000000000000000000000000000000600052603260045260246000fd5b60200101907effffffffffffffffffffffffffffffffffffffffffffffffffffffffffffff1916908160001a905350600a85611fa591906131d7565b9450611efd565b8093505050505b919050565b611fc28383612036565b611fcf6000848484611c74565b61200e576040517f08c379a000000000000000000000000000000000000000000000000000000000815260040161200590612ce1565b60405180910390fd5b505050565b6000808273ffffffffffffffffffffffffffffffffffffffff163b119050919050565b600073ffffffffffffffffffffffffffffffffffffffff168273ffffffffffffffffffffffffffffffffffffffff1614156120a6576040517f08c379a000000000000000000000000000000000000000000000000000000000815260040161209d90612e41565b60405180910390fd5b6120af816114df565b156120ef576040517f08c379a00000000000000000000000000000000000000000000000000000000081526004016120e690612d21565b60405180910390fd5b6120fb60008383611c6a565b6001600360008473ffffffffffffffffffffffffffffffffffffffff1673ffffffffffffffffffffffffffffffffffffffff168152602001908152602001600020600082825461214b9190613181565b92505081905550816002600083815260200190815260200160002060006101000a81548173ffffffffffffffffffffffffffffffffffffffff021916908373ffffffffffffffffffffffffffffffffffffffff160217905550808273ffffffffffffffffffffffffffffffffffffffff16600073ffffffffffffffffffffffffffffffffffffffff167fddf252ad1be2c89b69c2b068fc378daa952ba7f163c4a11628f55a4df523b3ef60405160405180910390a461220c60008383611c6f565b5050565b82805461221c90613316565b90600052602060002090601f01602090048101928261223e5760008555612285565b82601f1061225757805160ff1916838001178555612285565b82800160010185558215612285579182015b82811115612284578251825591602001919060010190612269565b5b5090506122929190612296565b5090565b5b808211156122af576000816000905550600101612297565b5090565b60006122c66122c184613059565b613034565b9050828152602081018484840111156122de57600080fd5b6122e98482856132d4565b509392505050565b60006123046122ff8461308a565b613034565b90508281526020810184848401111561231c57600080fd5b6123278482856132d4565b509392505050565b60008135905061233e81613a57565b92915050565b60008135905061235381613a6e565b92915050565b60008135905061236881613a85565b92915050565b60008151905061237d81613a85565b92915050565b600082601f83011261239457600080fd5b81356123a48482602086016122b3565b91505092915050565b600082601f8301126123be57600080fd5b81356123ce8482602086016122f1565b91505092915050565b6000813590506123e681613a9c565b92915050565b6000602082840312156123fe57600080fd5b600061240c8482850161232f565b91505092915050565b6000806040838503121561242857600080fd5b60006124368582860161232f565b92505060206124478582860161232f565b9150509250929050565b60008060006060848603121561246657600080fd5b60006124748682870161232f565b93505060206124858682870161232f565b9250506040612496868287016123d7565b9150509250925092565b600080600080608085870312156124b657600080fd5b60006124c48782880161232f565b94505060206124d58782880161232f565b93505060406124e6878288016123d7565b925050606085013567ffffffffffffffff81111561250357600080fd5b61250f87828801612383565b91505092959194509250565b6000806040838503121561252e57600080fd5b600061253c8582860161232f565b925050602061254d85828601612344565b9150509250929050565b6000806040838503121561256a57600080fd5b60006125788582860161232f565b9250506020612589858286016123d7565b9150509250929050565b6000602082840312156125a557600080fd5b60006125b384828501612359565b91505092915050565b6000602082840312156125ce57600080fd5b60006125dc8482850161236e565b91505092915050565b6000602082840312156125f757600080fd5b600082013567ffffffffffffffff81111561261157600080fd5b61261d848285016123ad565b91505092915050565b60006020828403121561263857600080fd5b6000612646848285016123d7565b91505092915050565b600061265b8383612b54565b905092915050565b600061266f8383612bb7565b60208301905092915050565b6126848161324e565b82525050565b6126938161324e565b82525050565b6126a28161323c565b82525050565b60006126b3826130db565b6126bd8185613121565b9350836020820285016126cf856130bb565b8060005b8581101561270b57848403895281516126ec858261264f565b94506126f783613107565b925060208a019950506001810190506126d3565b50829750879550505050505092915050565b6000612728826130e6565b6127328185613132565b935061273d836130cb565b8060005b8381101561276e5781516127558882612663565b975061276083613114565b925050600181019050612741565b5085935050505092915050565b61278481613260565b82525050565b6000612795826130f1565b61279f8185613143565b93506127af8185602086016132e3565b6127b8816134af565b840191505092915050565b6127cc816132c2565b82525050565b60006127dd826130fc565b6127e78185613154565b93506127f78185602086016132e3565b612800816134af565b840191505092915050565b6000612816826130fc565b6128208185613165565b93506128308185602086016132e3565b612839816134af565b840191505092915050565b600061284f826130fc565b6128598185613176565b93506128698185602086016132e3565b80840191505092915050565b6000612882603283613165565b915061288d826134c0565b604082019050919050565b60006128a5602583613165565b91506128b08261350f565b604082019050919050565b60006128c8601c83613165565b91506128d38261355e565b602082019050919050565b60006128eb602483613165565b91506128f682613587565b604082019050919050565b600061290e601983613165565b9150612919826135d6565b602082019050919050565b6000612931602c83613165565b915061293c826135ff565b604082019050919050565b6000612954603883613165565b915061295f8261364e565b604082019050919050565b6000612977602a83613165565b91506129828261369d565b604082019050919050565b600061299a602983613165565b91506129a5826136ec565b604082019050919050565b60006129bd602e83613165565b91506129c88261373b565b604082019050919050565b60006129e0600f83613165565b91506129eb8261378a565b602082019050919050565b6000612a03602083613165565b9150612a0e826137b3565b602082019050919050565b6000612a26603183613165565b9150612a31826137dc565b604082019050919050565b6000612a49602c83613165565b9150612a548261382b565b604082019050919050565b6000612a6c601983613165565b9150612a778261387a565b602082019050919050565b6000612a8f602f83613165565b9150612a9a826138a3565b604082019050919050565b6000612ab2602183613165565b9150612abd826138f2565b604082019050919050565b6000612ad5603383613165565b9150612ae082613941565b604082019050919050565b6000612af8601883613165565b9150612b0382613990565b602082019050919050565b6000612b1b602683613165565b9150612b26826139b9565b604082019050919050565b6000612b3e603183613165565b9150612b4982613a08565b604082019050919050565b6000608083016000830151612b6c6000860182612bb7565b5060208301518482036020860152612b8482826127d2565b9150506040830151612b996040860182612bb7565b506060830151612bac606086018261267b565b508091505092915050565b612bc0816132b8565b82525050565b612bcf816132b8565b82525050565b6000612be18285612844565b9150612bed8284612844565b91508190509392505050565b6000602082019050612c0e6000830184612699565b92915050565b6000608082019050612c296000830187612699565b612c366020830186612699565b612c436040830185612bc6565b8181036060830152612c55818461278a565b905095945050505050565b60006020820190508181036000830152612c7a81846126a8565b905092915050565b60006020820190508181036000830152612c9c818461271d565b905092915050565b6000602082019050612cb9600083018461277b565b92915050565b60006020820190508181036000830152612cd9818461280b565b905092915050565b60006020820190508181036000830152612cfa81612875565b9050919050565b60006020820190508181036000830152612d1a81612898565b9050919050565b60006020820190508181036000830152612d3a816128bb565b9050919050565b60006020820190508181036000830152612d5a816128de565b9050919050565b60006020820190508181036000830152612d7a81612901565b9050919050565b60006020820190508181036000830152612d9a81612924565b9050919050565b60006020820190508181036000830152612dba81612947565b9050919050565b60006020820190508181036000830152612dda8161296a565b9050919050565b60006020820190508181036000830152612dfa8161298d565b9050919050565b60006020820190508181036000830152612e1a816129b0565b9050919050565b60006020820190508181036000830152612e3a816129d3565b9050919050565b60006020820190508181036000830152612e5a816129f6565b9050919050565b60006020820190508181036000830152612e7a81612a19565b9050919050565b60006020820190508181036000830152612e9a81612a3c565b9050919050565b60006020820190508181036000830152612eba81612a5f565b9050919050565b60006020820190508181036000830152612eda81612a82565b9050919050565b60006020820190508181036000830152612efa81612aa5565b9050919050565b60006020820190508181036000830152612f1a81612ac8565b9050919050565b60006020820190508181036000830152612f3a81612aeb565b9050919050565b60006020820190508181036000830152612f5a81612b0e565b9050919050565b60006020820190508181036000830152612f7a81612b31565b9050919050565b6000602082019050612f966000830184612bc6565b92915050565b6000608082019050612fb16000830187612bc6565b8181036020830152612fc3818661280b565b9050612fd260408301856127c3565b612fdf606083018461268a565b95945050505050565b6000608082019050612ffd6000830187612bc6565b818103602083015261300f818661280b565b905061301e6040830185612bc6565b61302b606083018461268a565b95945050505050565b600061303e61304f565b905061304a8282613348565b919050565b6000604051905090565b600067ffffffffffffffff82111561307457613073613480565b5b61307d826134af565b9050602081019050919050565b600067ffffffffffffffff8211156130a5576130a4613480565b5b6130ae826134af565b9050602081019050919050565b6000819050602082019050919050565b6000819050602082019050919050565b600081519050919050565b600081519050919050565b600081519050919050565b600081519050919050565b6000602082019050919050565b6000602082019050919050565b600082825260208201905092915050565b600082825260208201905092915050565b600082825260208201905092915050565b600082825260208201905092915050565b600082825260208201905092915050565b600081905092915050565b600061318c826132b8565b9150613197836132b8565b9250827fffffffffffffffffffffffffffffffffffffffffffffffffffffffffffffffff038211156131cc576131cb6133f3565b5b828201905092915050565b60006131e2826132b8565b91506131ed836132b8565b9250826131fd576131fc613422565b5b828204905092915050565b6000613213826132b8565b915061321e836132b8565b925082821015613231576132306133f3565b5b828203905092915050565b600061324782613298565b9050919050565b600061325982613298565b9050919050565b60008115159050919050565b60007fffffffff0000000000000000000000000000000000000000000000000000000082169050919050565b600073ffffffffffffffffffffffffffffffffffffffff82169050919050565b6000819050919050565b60006132cd826132b8565b9050919050565b82818337600083830152505050565b60005b838110156133015780820151818401526020810190506132e6565b83811115613310576000848401525b50505050565b6000600282049050600182168061332e57607f821691505b6020821081141561334257613341613451565b5b50919050565b613351826134af565b810181811067ffffffffffffffff821117156133705761336f613480565b5b80604052505050565b6000613384826132b8565b91507fffffffffffffffffffffffffffffffffffffffffffffffffffffffffffffffff8214156133b7576133b66133f3565b5b600182019050919050565b60006133cd826132b8565b91506133d8836132b8565b9250826133e8576133e7613422565b5b828206905092915050565b7f4e487b7100000000000000000000000000000000000000000000000000000000600052601160045260246000fd5b7f4e487b7100000000000000000000000000000000000000000000000000000000600052601260045260246000fd5b7f4e487b7100000000000000000000000000000000000000000000000000000000600052602260045260246000fd5b7f4e487b7100000000000000000000000000000000000000000000000000000000600052604160045260246000fd5b6000601f19601f8301169050919050565b7f4552433732313a207472616e7366657220746f206e6f6e20455243373231526560008201527f63656976657220696d706c656d656e7465720000000000000000000000000000602082015250565b7f4552433732313a207472616e736665722066726f6d20696e636f72726563742060008201527f6f776e6572000000000000000000000000000000000000000000000000000000602082015250565b7f4552433732313a20746f6b656e20616c7265616479206d696e74656400000000600082015250565b7f4552433732313a207472616e7366657220746f20746865207a65726f2061646460008201527f7265737300000000000000000000000000000000000000000000000000000000602082015250565b7f4552433732313a20617070726f766520746f2063616c6c657200000000000000600082015250565b7f4552433732313a206f70657261746f7220717565727920666f72206e6f6e657860008201527f697374656e7420746f6b656e0000000000000000000000000000000000000000602082015250565b7f4552433732313a20617070726f76652063616c6c6572206973206e6f74206f7760008201527f6e6572206e6f7220617070726f76656420666f7220616c6c0000000000000000602082015250565b7f4552433732313a2062616c616e636520717565727920666f7220746865207a6560008201527f726f206164647265737300000000000000000000000000000000000000000000602082015250565b7f4552433732313a206f776e657220717565727920666f72206e6f6e657869737460008201527f656e7420746f6b656e0000000000000000000000000000000000000000000000602082015250565b7f45524337323155524953746f726167653a2055524920736574206f66206e6f6e60008201527f6578697374656e7420746f6b656e000000000000000000000000000000000000602082015250565b7f496e76616c696420706f73742069640000000000000000000000000000000000600082015250565b7f4552433732313a206d696e7420746f20746865207a65726f2061646472657373600082015250565b7f45524337323155524953746f726167653a2055524920717565727920666f722060008201527f6e6f6e6578697374656e7420746f6b656e000000000000000000000000000000602082015250565b7f4552433732313a20617070726f76656420717565727920666f72206e6f6e657860008201527f697374656e7420746f6b656e0000000000000000000000000000000000000000602082015250565b7f43616e6e6f74207061737320616e20656d707479206861736800000000000000600082015250565b7f4552433732314d657461646174613a2055524920717565727920666f72206e6f60008201527f6e6578697374656e7420746f6b656e0000000000000000000000000000000000602082015250565b7f4552433732313a20617070726f76616c20746f2063757272656e74206f776e6560008201527f7200000000000000000000000000000000000000000000000000000000000000602082015250565b7f4d757374206f776e20746865206e667420796f752077616e7420746f2073656c60008201527f65637420617320796f75722070726f66696c6500000000000000000000000000602082015250565b7f43616e6e6f742074697020796f7572206f776e20706f73740000000000000000600082015250565b7f4d757374206f776e206120646563656e74726174776974746572206e6674207460008201527f6f20706f73740000000000000000000000000000000000000000000000000000602082015250565b7f4552433732313a207472616e736665722063616c6c6572206973206e6f74206f60008201527f776e6572206e6f7220617070726f766564000000000000000000000000000000602082015250565b613a608161323c565b8114613a6b57600080fd5b50565b613a7781613260565b8114613a8257600080fd5b50565b613a8e8161326c565b8114613a9957600080fd5b50565b613aa5816132b8565b8114613ab057600080fd5b5056fea26469706673582212209887f3512b434808c576f2505f1d7042950dc491723e4ca38ee27f9cbe08f2ac64736f6c63430008040033",
  "linkReferences": {},
  "deployedLinkReferences": {}
}